{
  "contractName": "ZombieFactory",
  "abi": [
    {
      "anonymous": false,
      "inputs": [
        {
          "indexed": false,
          "internalType": "uint256",
          "name": "zombieId",
          "type": "uint256"
        },
        {
          "indexed": false,
          "internalType": "string",
          "name": "name",
          "type": "string"
        },
        {
          "indexed": false,
          "internalType": "uint256",
          "name": "dna",
          "type": "uint256"
        }
      ],
      "name": "NewZombie",
      "type": "event"
    },
    {
      "anonymous": false,
      "inputs": [
        {
          "indexed": true,
          "internalType": "address",
          "name": "previousOwner",
          "type": "address"
        },
        {
          "indexed": true,
          "internalType": "address",
          "name": "newOwner",
          "type": "address"
        }
      ],
      "name": "OwnershipTransferred",
      "type": "event"
    },
    {
      "constant": true,
      "inputs": [],
      "name": "cooldownTime",
      "outputs": [
        {
          "internalType": "uint256",
          "name": "",
          "type": "uint256"
        }
      ],
      "payable": false,
      "stateMutability": "view",
      "type": "function"
    },
    {
      "constant": true,
      "inputs": [],
      "name": "currentDna",
      "outputs": [
        {
          "internalType": "uint256",
          "name": "",
          "type": "uint256"
        }
      ],
      "payable": false,
      "stateMutability": "view",
      "type": "function"
    },
    {
      "constant": true,
      "inputs": [],
      "name": "dnaDigits",
      "outputs": [
        {
          "internalType": "uint256",
          "name": "",
          "type": "uint256"
        }
      ],
      "payable": false,
      "stateMutability": "view",
      "type": "function"
    },
    {
      "constant": true,
      "inputs": [],
      "name": "dnaModulus",
      "outputs": [
        {
          "internalType": "uint256",
          "name": "",
          "type": "uint256"
        }
      ],
      "payable": false,
      "stateMutability": "view",
      "type": "function"
    },
    {
      "constant": true,
      "inputs": [],
      "name": "isOwner",
      "outputs": [
        {
          "internalType": "bool",
          "name": "",
          "type": "bool"
        }
      ],
      "payable": false,
      "stateMutability": "view",
      "type": "function"
    },
    {
      "constant": true,
      "inputs": [],
      "name": "owner",
      "outputs": [
        {
          "internalType": "address",
          "name": "",
          "type": "address"
        }
      ],
      "payable": false,
      "stateMutability": "view",
      "type": "function"
    },
    {
      "constant": false,
      "inputs": [],
      "name": "renounceOwnership",
      "outputs": [],
      "payable": false,
      "stateMutability": "nonpayable",
      "type": "function"
    },
    {
      "constant": false,
      "inputs": [
        {
          "internalType": "address",
          "name": "newOwner",
          "type": "address"
        }
      ],
      "name": "transferOwnership",
      "outputs": [],
      "payable": false,
      "stateMutability": "nonpayable",
      "type": "function"
    },
    {
      "constant": true,
      "inputs": [
        {
          "internalType": "uint256",
          "name": "",
          "type": "uint256"
        }
      ],
      "name": "zombieToOwner",
      "outputs": [
        {
          "internalType": "address",
          "name": "",
          "type": "address"
        }
      ],
      "payable": false,
      "stateMutability": "view",
      "type": "function"
    },
    {
      "constant": true,
      "inputs": [
        {
          "internalType": "uint256",
          "name": "",
          "type": "uint256"
        }
      ],
      "name": "zombies",
      "outputs": [
        {
          "internalType": "string",
          "name": "name",
          "type": "string"
        },
        {
          "internalType": "uint256",
          "name": "dna",
          "type": "uint256"
        }
      ],
      "payable": false,
      "stateMutability": "view",
      "type": "function"
    },
    {
      "constant": true,
      "inputs": [
        {
          "internalType": "string",
          "name": "_str",
          "type": "string"
        }
      ],
      "name": "_generateRandomDna",
      "outputs": [
        {
          "internalType": "uint256",
          "name": "",
          "type": "uint256"
        }
      ],
      "payable": false,
      "stateMutability": "view",
      "type": "function"
    },
    {
      "constant": false,
      "inputs": [
        {
          "internalType": "string",
          "name": "_name",
          "type": "string"
        }
      ],
      "name": "createRandomZombie",
      "outputs": [],
      "payable": false,
      "stateMutability": "nonpayable",
      "type": "function"
    },
    {
      "constant": true,
      "inputs": [
        {
          "internalType": "address",
          "name": "_owner",
          "type": "address"
        }
      ],
      "name": "getZombiesByOwner",
      "outputs": [
        {
          "components": [
            {
              "internalType": "string",
              "name": "name",
              "type": "string"
            },
            {
              "internalType": "uint256",
              "name": "dna",
              "type": "uint256"
            }
          ],
          "internalType": "struct ZombieFactory.Zombie[]",
          "name": "",
          "type": "tuple[]"
        }
      ],
      "payable": false,
      "stateMutability": "view",
      "type": "function"
    },
    {
      "constant": true,
      "inputs": [
        {
          "internalType": "uint256",
          "name": "_id",
          "type": "uint256"
        }
      ],
      "name": "getZombieByAddress",
      "outputs": [
        {
          "internalType": "string",
          "name": "",
          "type": "string"
        },
        {
          "internalType": "uint256",
          "name": "",
          "type": "uint256"
        }
      ],
      "payable": false,
      "stateMutability": "view",
      "type": "function"
    }
  ],
  "bytecode": "0x60806040526010600155600154600a0a60025562015180600355336000806101000a81548173ffffffffffffffffffffffffffffffffffffffff021916908373ffffffffffffffffffffffffffffffffffffffff1602179055506000809054906101000a900473ffffffffffffffffffffffffffffffffffffffff1673ffffffffffffffffffffffffffffffffffffffff16600073ffffffffffffffffffffffffffffffffffffffff167f8be0079c531659141344cd1fd0a4f28419497f9722a3daafe3b4186f6b6457e060405160405180910390a3611218806100e46000396000f3fe608060405234801561001057600080fd5b50600436106100ea5760003560e01c80638da5cb5b1161008c578063daba071111610066578063daba07111461023c578063df57a6ec1461025a578063f2fde38b1461028a578063fa86dedf146102a6576100ea565b80638da5cb5b146101e25780638f32d59b14610200578063b319c6b71461021e576100ea565b8063528b7b8f116100c8578063528b7b8f1461016e578063692c66271461019e578063715018a6146101bc5780637bff0a01146101c6576100ea565b80632052465e146100ef5780634412e104146101205780634a4679b314610150575b600080fd5b61010960048036036101049190810190610d08565b6102d7565b604051610117929190610fae565b60405180910390f35b61013a60048036036101359190810190610c9e565b6103a0565b6040516101479190610f41565b60405180910390f35b6101586105a8565b6040516101659190610fde565b60405180910390f35b61018860048036036101839190810190610d08565b6105ae565b6040516101959190610f26565b60405180910390f35b6101a66105e1565b6040516101b39190610fde565b60405180910390f35b6101c46105e7565b005b6101e060048036036101db9190810190610cc7565b6106b7565b005b6101ea6106e1565b6040516101f79190610f26565b60405180910390f35b61020861070a565b6040516102159190610f63565b60405180910390f35b610226610761565b6040516102339190610fde565b60405180910390f35b610244610767565b6040516102519190610fde565b60405180910390f35b610274600480360361026f9190810190610cc7565b61076d565b6040516102819190610fde565b60405180910390f35b6102a4600480360361029f9190810190610c9e565b6107b0565b005b6102c060048036036102bb9190810190610d08565b6107cd565b6040516102ce929190610f7e565b60405180910390f35b600581815481106102e457fe5b9060005260206000209060020201600091509050806000018054600181600116156101000203166002900480601f0160208091040260200160405190810160405280929190818152602001828054600181600116156101000203166002900480156103905780601f1061036557610100808354040283529160200191610390565b820191906000526020600020905b81548152906001019060200180831161037357829003601f168201915b5050505050908060010154905082565b606080600760008473ffffffffffffffffffffffffffffffffffffffff1673ffffffffffffffffffffffffffffffffffffffff1681526020019081526020016000205460405190808252806020026020018201604052801561041c57816020015b610409610b61565b8152602001906001900390816104015790505b509050600080905060008090505b60058054905081101561059d578473ffffffffffffffffffffffffffffffffffffffff166006600083815260200190815260200160002060009054906101000a900473ffffffffffffffffffffffffffffffffffffffff1673ffffffffffffffffffffffffffffffffffffffff16141561059057600581815481106104ab57fe5b9060005260206000209060020201604051806040016040529081600082018054600181600116156101000203166002900480601f01602080910402602001604051908101604052809291908181526020018280546001816001161561010002031660029004801561055d5780601f106105325761010080835404028352916020019161055d565b820191906000526020600020905b81548152906001019060200180831161054057829003601f168201915b5050505050815260200160018201548152505083838151811061057c57fe5b602002602001018190525081806001019250505b808060010191505061042a565b508192505050919050565b60045481565b60066020528060005260406000206000915054906101000a900473ffffffffffffffffffffffffffffffffffffffff1681565b60015481565b6105ef61070a565b6105f857600080fd5b600073ffffffffffffffffffffffffffffffffffffffff166000809054906101000a900473ffffffffffffffffffffffffffffffffffffffff1673ffffffffffffffffffffffffffffffffffffffff167f8be0079c531659141344cd1fd0a4f28419497f9722a3daafe3b4186f6b6457e060405160405180910390a360008060006101000a81548173ffffffffffffffffffffffffffffffffffffffff021916908373ffffffffffffffffffffffffffffffffffffffff160217905550565b60006106c28261076d565b9050606481816106ce57fe5b06810390506106dd82826108b3565b5050565b60008060009054906101000a900473ffffffffffffffffffffffffffffffffffffffff16905090565b60008060009054906101000a900473ffffffffffffffffffffffffffffffffffffffff1673ffffffffffffffffffffffffffffffffffffffff163373ffffffffffffffffffffffffffffffffffffffff1614905090565b60035481565b60025481565b600080826040516020016107819190610f0f565b6040516020818303038152906040528051906020012060001c905060025481816107a757fe5b06915050919050565b6107b861070a565b6107c157600080fd5b6107ca81610a4d565b50565b60606000600583815481106107de57fe5b9060005260206000209060020201600001600584815481106107fc57fe5b906000526020600020906002020160010154818054600181600116156101000203166002900480601f0160208091040260200160405190810160405280929190818152602001828054600181600116156101000203166002900480156108a35780601f10610878576101008083540402835291602001916108a3565b820191906000526020600020905b81548152906001019060200180831161088657829003601f168201915b5050505050915091509150915091565b600060016005604051806040016040528086815260200185815250908060018154018082558091505090600182039060005260206000209060020201600090919290919091506000820151816000019080519060200190610915929190610b7b565b50602082015181600101555050039050336006600083815260200190815260200160002060006101000a81548173ffffffffffffffffffffffffffffffffffffffff021916908373ffffffffffffffffffffffffffffffffffffffff1602179055506109ca6001600760003373ffffffffffffffffffffffffffffffffffffffff1673ffffffffffffffffffffffffffffffffffffffff16815260200190815260200160002054610b4590919063ffffffff16565b600760003373ffffffffffffffffffffffffffffffffffffffff1673ffffffffffffffffffffffffffffffffffffffff168152602001908152602001600020819055507f88f026aacbbecc90c18411df4b1185fd8d9be2470f1962f192bf84a27d0704b7818484604051610a4093929190610ff9565b60405180910390a1505050565b600073ffffffffffffffffffffffffffffffffffffffff168173ffffffffffffffffffffffffffffffffffffffff161415610a8757600080fd5b8073ffffffffffffffffffffffffffffffffffffffff166000809054906101000a900473ffffffffffffffffffffffffffffffffffffffff1673ffffffffffffffffffffffffffffffffffffffff167f8be0079c531659141344cd1fd0a4f28419497f9722a3daafe3b4186f6b6457e060405160405180910390a3806000806101000a81548173ffffffffffffffffffffffffffffffffffffffff021916908373ffffffffffffffffffffffffffffffffffffffff16021790555050565b600080828401905083811015610b5757fe5b8091505092915050565b604051806040016040528060608152602001600081525090565b828054600181600116156101000203166002900490600052602060002090601f016020900481019282601f10610bbc57805160ff1916838001178555610bea565b82800160010185558215610bea579182015b82811115610be9578251825591602001919060010190610bce565b5b509050610bf79190610bfb565b5090565b610c1d91905b80821115610c19576000816000905550600101610c01565b5090565b90565b600081359050610c2f816111a7565b92915050565b600082601f830112610c4657600080fd5b8135610c59610c5482611064565b611037565b91508082526020830160208301858383011115610c7557600080fd5b610c80838284611154565b50505092915050565b600081359050610c98816111be565b92915050565b600060208284031215610cb057600080fd5b6000610cbe84828501610c20565b91505092915050565b600060208284031215610cd957600080fd5b600082013567ffffffffffffffff811115610cf357600080fd5b610cff84828501610c35565b91505092915050565b600060208284031215610d1a57600080fd5b6000610d2884828501610c89565b91505092915050565b6000610d3d8383610eb4565b905092915050565b610d4e8161110c565b82525050565b6000610d5f826110a0565b610d6981856110ce565b935083602082028501610d7b85611090565b8060005b85811015610db75784840389528151610d988582610d31565b9450610da3836110c1565b925060208a01995050600181019050610d7f565b50829750879550505050505092915050565b610dd28161111e565b82525050565b6000610de3826110b6565b610ded81856110f0565b9350610dfd818560208601611163565b610e0681611196565b840191505092915050565b6000610e1c826110b6565b610e268185611101565b9350610e36818560208601611163565b80840191505092915050565b6000610e4d826110ab565b610e5781856110df565b9350610e67818560208601611163565b610e7081611196565b840191505092915050565b6000610e86826110ab565b610e9081856110f0565b9350610ea0818560208601611163565b610ea981611196565b840191505092915050565b60006040830160008301518482036000860152610ed18282610e42565b9150506020830151610ee66020860182610ef1565b508091505092915050565b610efa8161114a565b82525050565b610f098161114a565b82525050565b6000610f1b8284610e11565b915081905092915050565b6000602082019050610f3b6000830184610d45565b92915050565b60006020820190508181036000830152610f5b8184610d54565b905092915050565b6000602082019050610f786000830184610dc9565b92915050565b60006040820190508181036000830152610f988185610dd8565b9050610fa76020830184610f00565b9392505050565b60006040820190508181036000830152610fc88185610e7b565b9050610fd76020830184610f00565b9392505050565b6000602082019050610ff36000830184610f00565b92915050565b600060608201905061100e6000830186610f00565b81810360208301526110208185610dd8565b905061102f6040830184610f00565b949350505050565b6000604051905081810181811067ffffffffffffffff8211171561105a57600080fd5b8060405250919050565b600067ffffffffffffffff82111561107b57600080fd5b601f19601f8301169050602081019050919050565b6000819050602082019050919050565b600081519050919050565b600081519050919050565b600081519050919050565b6000602082019050919050565b600082825260208201905092915050565b600082825260208201905092915050565b600082825260208201905092915050565b600081905092915050565b60006111178261112a565b9050919050565b60008115159050919050565b600073ffffffffffffffffffffffffffffffffffffffff82169050919050565b6000819050919050565b82818337600083830152505050565b60005b83811015611181578082015181840152602081019050611166565b83811115611190576000848401525b50505050565b6000601f19601f8301169050919050565b6111b08161110c565b81146111bb57600080fd5b50565b6111c78161114a565b81146111d257600080fd5b5056fea365627a7a72315820413d7a27b634e51e6ba8bd40394857fa1c8390cf7cc854182b3a2e4ae543cd566c6578706572696d656e74616cf564736f6c63430005100040",
  "source": "pragma solidity >=0.5.0 <0.6.0;\r\npragma experimental ABIEncoderV2;\r\n\r\nimport \"./ownable.sol\";\r\nimport \"./safemath.sol\";\r\n\r\ncontract ZombieFactory is Ownable {\r\n    using SafeMath for uint256;\r\n    using SafeMath32 for uint32;\r\n    using SafeMath16 for uint16;\r\n\r\n    event NewZombie(uint256 zombieId, string name, uint256 dna);\r\n\r\n    uint256 public dnaDigits = 16;\r\n    uint256 public dnaModulus = 10**dnaDigits;\r\n    uint256 public cooldownTime = 1 days;\r\n    uint256 public currentDna;\r\n    struct Zombie {\r\n        string name;\r\n        uint256 dna;\r\n    }\r\n\r\n    Zombie[] public zombies;\r\n\r\n    mapping(uint256 => address) public zombieToOwner;\r\n    mapping(address => uint256) ownerZombieCount;\r\n\r\n    function _createZombie(string memory _name, uint256 _dna) internal {\r\n        uint256 id = zombies.push(Zombie(_name, _dna)) - 1;\r\n        zombieToOwner[id] = msg.sender;\r\n        ownerZombieCount[msg.sender] = ownerZombieCount[msg.sender].add(1);\r\n        emit NewZombie(id, _name, _dna);\r\n    }\r\n\r\n    function _generateRandomDna(string memory _str)\r\n        public\r\n        view\r\n        returns (uint256)\r\n    {\r\n        uint256 rand = uint256(keccak256(abi.encodePacked(_str)));\r\n        return rand % dnaModulus;\r\n    }\r\n\r\n    function createRandomZombie(string memory _name) public {\r\n        uint256 randDna = _generateRandomDna(_name);\r\n        randDna = randDna - (randDna % 100);\r\n        _createZombie(_name, randDna);\r\n    }\r\n\r\n    function getZombiesByOwner(address _owner)\r\n        public\r\n        view\r\n        returns (Zombie[] memory)\r\n    {\r\n        Zombie[] memory result = new Zombie[](ownerZombieCount[_owner]);\r\n        uint256 counter = 0;\r\n        for (uint256 i = 0; i < zombies.length; i++) {\r\n            if (zombieToOwner[i] == _owner) {\r\n                result[counter]  = zombies[i];\r\n                counter++;\r\n            }\r\n        }\r\n        return result;\r\n    }\r\n\r\n    function getZombieByAddress(uint256 _id)\r\n        public\r\n        view\r\n        returns (string memory, uint256)\r\n    {\r\n        return (zombies[_id].name, zombies[_id].dna);\r\n    }\r\n}\r\n",
  "sourcePath": "C:\\Users\\HP\\Desktop\\Solidity\\nftArt\\contracts\\ZombieFactory.sol",
  "compiler": {
    "name": "solc",
    "version": "0.5.16+commit.9c3226ce.Emscripten.clang"
  },
  "schemaVersion": "3.4.4",
  "updatedAt": "2021-12-30T10:16:12.655Z",
  "networkType": "ethereum",
  "devdoc": {
    "methods": {
      "isOwner()": {
        "return": "true if `msg.sender` is the owner of the contract."
      },
      "owner()": {
        "return": "the address of the owner."
      },
      "renounceOwnership()": {
        "details": "Allows the current owner to relinquish control of the contract."
      },
      "transferOwnership(address)": {
        "details": "Allows the current owner to transfer control of the contract to a newOwner.",
        "params": {
          "newOwner": "The address to transfer ownership to."
        }
      }
    }
  },
  "userdoc": {
    "methods": {
      "renounceOwnership()": {
        "notice": "Renouncing to ownership will leave the contract without an owner. It will not be possible to call the functions with the `onlyOwner` modifier anymore."
      }
    }
  }
}