{
  "contractName": "ZombieFactory",
  "abi": [
    {
      "anonymous": false,
      "inputs": [
        {
          "indexed": false,
          "internalType": "uint256",
          "name": "zombieId",
          "type": "uint256"
        },
        {
          "indexed": false,
          "internalType": "string",
          "name": "name",
          "type": "string"
        },
        {
          "indexed": false,
          "internalType": "uint256",
          "name": "dna",
          "type": "uint256"
        }
      ],
      "name": "NewZombie",
      "type": "event"
    },
    {
      "anonymous": false,
      "inputs": [
        {
          "indexed": true,
          "internalType": "address",
          "name": "previousOwner",
          "type": "address"
        },
        {
          "indexed": true,
          "internalType": "address",
          "name": "newOwner",
          "type": "address"
        }
      ],
      "name": "OwnershipTransferred",
      "type": "event"
    },
    {
      "anonymous": false,
      "inputs": [
        {
          "indexed": true,
          "internalType": "address",
          "name": "_from",
          "type": "address"
        },
        {
          "indexed": true,
          "internalType": "address",
          "name": "_to",
          "type": "address"
        },
        {
          "indexed": true,
          "internalType": "uint256",
          "name": "_tokenId",
          "type": "uint256"
        }
      ],
      "name": "Transfer",
      "type": "event"
    },
    {
      "constant": true,
      "inputs": [],
      "name": "cooldownTime",
      "outputs": [
        {
          "internalType": "uint256",
          "name": "",
          "type": "uint256"
        }
      ],
      "payable": false,
      "stateMutability": "view",
      "type": "function"
    },
    {
      "constant": true,
      "inputs": [],
      "name": "currentIndex",
      "outputs": [
        {
          "internalType": "uint256",
          "name": "",
          "type": "uint256"
        }
      ],
      "payable": false,
      "stateMutability": "view",
      "type": "function"
    },
    {
      "constant": true,
      "inputs": [],
      "name": "dnaDigits",
      "outputs": [
        {
          "internalType": "uint256",
          "name": "",
          "type": "uint256"
        }
      ],
      "payable": false,
      "stateMutability": "view",
      "type": "function"
    },
    {
      "constant": true,
      "inputs": [],
      "name": "dnaModulus",
      "outputs": [
        {
          "internalType": "uint256",
          "name": "",
          "type": "uint256"
        }
      ],
      "payable": false,
      "stateMutability": "view",
      "type": "function"
    },
    {
      "constant": true,
      "inputs": [],
      "name": "isOwner",
      "outputs": [
        {
          "internalType": "bool",
          "name": "",
          "type": "bool"
        }
      ],
      "payable": false,
      "stateMutability": "view",
      "type": "function"
    },
    {
      "constant": true,
      "inputs": [],
      "name": "owner",
      "outputs": [
        {
          "internalType": "address",
          "name": "",
          "type": "address"
        }
      ],
      "payable": false,
      "stateMutability": "view",
      "type": "function"
    },
    {
      "constant": false,
      "inputs": [],
      "name": "renounceOwnership",
      "outputs": [],
      "payable": false,
      "stateMutability": "nonpayable",
      "type": "function"
    },
    {
      "constant": false,
      "inputs": [
        {
          "internalType": "address",
          "name": "newOwner",
          "type": "address"
        }
      ],
      "name": "transferOwnership",
      "outputs": [],
      "payable": false,
      "stateMutability": "nonpayable",
      "type": "function"
    },
    {
      "constant": true,
      "inputs": [
        {
          "internalType": "uint256",
          "name": "",
          "type": "uint256"
        }
      ],
      "name": "zombieToOwner",
      "outputs": [
        {
          "internalType": "address",
          "name": "",
          "type": "address"
        }
      ],
      "payable": false,
      "stateMutability": "view",
      "type": "function"
    },
    {
      "constant": true,
      "inputs": [
        {
          "internalType": "uint256",
          "name": "",
          "type": "uint256"
        }
      ],
      "name": "zombies",
      "outputs": [
        {
          "internalType": "string",
          "name": "name",
          "type": "string"
        },
        {
          "internalType": "uint256",
          "name": "dna",
          "type": "uint256"
        },
        {
          "internalType": "uint256",
          "name": "index",
          "type": "uint256"
        }
      ],
      "payable": false,
      "stateMutability": "view",
      "type": "function"
    },
    {
      "constant": true,
      "inputs": [
        {
          "internalType": "string",
          "name": "_str",
          "type": "string"
        }
      ],
      "name": "_generateRandomDna",
      "outputs": [
        {
          "internalType": "uint256",
          "name": "",
          "type": "uint256"
        }
      ],
      "payable": false,
      "stateMutability": "view",
      "type": "function"
    },
    {
      "constant": false,
      "inputs": [
        {
          "internalType": "string",
          "name": "_name",
          "type": "string"
        }
      ],
      "name": "createRandomZombie",
      "outputs": [],
      "payable": false,
      "stateMutability": "nonpayable",
      "type": "function"
    },
    {
      "constant": true,
      "inputs": [
        {
          "internalType": "address",
          "name": "_owner",
          "type": "address"
        }
      ],
      "name": "getZombiesByOwner",
      "outputs": [
        {
          "components": [
            {
              "internalType": "string",
              "name": "name",
              "type": "string"
            },
            {
              "internalType": "uint256",
              "name": "dna",
              "type": "uint256"
            },
            {
              "internalType": "uint256",
              "name": "index",
              "type": "uint256"
            }
          ],
          "internalType": "struct ZombieFactory.Zombie[]",
          "name": "",
          "type": "tuple[]"
        }
      ],
      "payable": false,
      "stateMutability": "view",
      "type": "function"
    },
    {
      "constant": false,
      "inputs": [
        {
          "internalType": "address",
          "name": "_from",
          "type": "address"
        },
        {
          "internalType": "address",
          "name": "_to",
          "type": "address"
        },
        {
          "internalType": "uint256",
          "name": "_tokenId",
          "type": "uint256"
        }
      ],
      "name": "_transfer",
      "outputs": [],
      "payable": false,
      "stateMutability": "nonpayable",
      "type": "function"
    },
    {
      "constant": false,
      "inputs": [
        {
          "internalType": "address",
          "name": "_from",
          "type": "address"
        },
        {
          "internalType": "address",
          "name": "_to",
          "type": "address"
        },
        {
          "internalType": "uint256",
          "name": "_tokenId",
          "type": "uint256"
        }
      ],
      "name": "transferFrom",
      "outputs": [
        {
          "internalType": "bool",
          "name": "",
          "type": "bool"
        }
      ],
      "payable": false,
      "stateMutability": "nonpayable",
      "type": "function"
    }
  ],
  "bytecode": "0x60806040526010600155600154600a0a60025562015180600355336000806101000a81548173ffffffffffffffffffffffffffffffffffffffff021916908373ffffffffffffffffffffffffffffffffffffffff1602179055506000809054906101000a900473ffffffffffffffffffffffffffffffffffffffff1673ffffffffffffffffffffffffffffffffffffffff16600073ffffffffffffffffffffffffffffffffffffffff167f8be0079c531659141344cd1fd0a4f28419497f9722a3daafe3b4186f6b6457e060405160405180910390a36114b5806100e46000396000f3fe608060405234801561001057600080fd5b50600436106100f55760003560e01c8063715018a611610097578063b319c6b711610066578063b319c6b714610276578063daba071114610294578063df57a6ec146102b2578063f2fde38b146102e2576100f5565b8063715018a6146102145780637bff0a011461021e5780638da5cb5b1461023a5780638f32d59b14610258576100f5565b806330e0789e116100d357806330e0789e1461017a5780634412e10414610196578063528b7b8f146101c6578063692c6627146101f6576100f5565b80632052465e146100fa57806323b872dd1461012c57806326987b601461015c575b600080fd5b610114600480360361010f9190810190610fb4565b6102fe565b6040516101239392919061123d565b60405180910390f35b61014660048036036101419190810190610f24565b6103cd565b6040516101539190611222565b60405180910390f35b6101646104b9565b604051610171919061127b565b60405180910390f35b610194600480360361018f9190810190610f24565b6104bf565b005b6101b060048036036101ab9190810190610efb565b61069d565b6040516101bd9190611200565b60405180910390f35b6101e060048036036101db9190810190610fb4565b6108af565b6040516101ed91906111e5565b60405180910390f35b6101fe6108e2565b60405161020b919061127b565b60405180910390f35b61021c6108e8565b005b61023860048036036102339190810190610f73565b6109b8565b005b6102426109e2565b60405161024f91906111e5565b60405180910390f35b610260610a0b565b60405161026d9190611222565b60405180910390f35b61027e610a62565b60405161028b919061127b565b60405180910390f35b61029c610a68565b6040516102a9919061127b565b60405180910390f35b6102cc60048036036102c79190810190610f73565b610a6e565b6040516102d9919061127b565b60405180910390f35b6102fc60048036036102f79190810190610efb565b610ab1565b005b6005818154811061030b57fe5b9060005260206000209060030201600091509050806000018054600181600116156101000203166002900480601f0160208091040260200160405190810160405280929190818152602001828054600181600116156101000203166002900480156103b75780601f1061038c576101008083540402835291602001916103b7565b820191906000526020600020905b81548152906001019060200180831161039a57829003601f168201915b5050505050908060010154908060020154905083565b60003373ffffffffffffffffffffffffffffffffffffffff166006600084815260200190815260200160002060009054906101000a900473ffffffffffffffffffffffffffffffffffffffff1673ffffffffffffffffffffffffffffffffffffffff16148061049a57503373ffffffffffffffffffffffffffffffffffffffff166008600084815260200190815260200160002060009054906101000a900473ffffffffffffffffffffffffffffffffffffffff1673ffffffffffffffffffffffffffffffffffffffff16145b6104a357600080fd5b6104ae8484846104bf565b600190509392505050565b60045481565b6105126001600760008573ffffffffffffffffffffffffffffffffffffffff1673ffffffffffffffffffffffffffffffffffffffff16815260200190815260200160002054610ace90919063ffffffff16565b600760008473ffffffffffffffffffffffffffffffffffffffff1673ffffffffffffffffffffffffffffffffffffffff168152602001908152602001600020819055506105a86001600760003373ffffffffffffffffffffffffffffffffffffffff1673ffffffffffffffffffffffffffffffffffffffff16815260200190815260200160002054610aea90919063ffffffff16565b600760003373ffffffffffffffffffffffffffffffffffffffff1673ffffffffffffffffffffffffffffffffffffffff16815260200190815260200160002081905550816006600083815260200190815260200160002060006101000a81548173ffffffffffffffffffffffffffffffffffffffff021916908373ffffffffffffffffffffffffffffffffffffffff160217905550808273ffffffffffffffffffffffffffffffffffffffff168473ffffffffffffffffffffffffffffffffffffffff167fddf252ad1be2c89b69c2b068fc378daa952ba7f163c4a11628f55a4df523b3ef60405160405180910390a4505050565b606080600760008473ffffffffffffffffffffffffffffffffffffffff1673ffffffffffffffffffffffffffffffffffffffff1681526020019081526020016000205460405190808252806020026020018201604052801561071957816020015b610706610db7565b8152602001906001900390816106fe5790505b509050600080905060008090505b6005805490508110156108a4578473ffffffffffffffffffffffffffffffffffffffff166006600083815260200190815260200160002060009054906101000a900473ffffffffffffffffffffffffffffffffffffffff1673ffffffffffffffffffffffffffffffffffffffff16141561089757600581815481106107a857fe5b9060005260206000209060030201604051806060016040529081600082018054600181600116156101000203166002900480601f01602080910402602001604051908101604052809291908181526020018280546001816001161561010002031660029004801561085a5780601f1061082f5761010080835404028352916020019161085a565b820191906000526020600020905b81548152906001019060200180831161083d57829003601f168201915b505050505081526020016001820154815260200160028201548152505083838151811061088357fe5b602002602001018190525081806001019250505b8080600101915050610727565b508192505050919050565b60066020528060005260406000206000915054906101000a900473ffffffffffffffffffffffffffffffffffffffff1681565b60015481565b6108f0610a0b565b6108f957600080fd5b600073ffffffffffffffffffffffffffffffffffffffff166000809054906101000a900473ffffffffffffffffffffffffffffffffffffffff1673ffffffffffffffffffffffffffffffffffffffff167f8be0079c531659141344cd1fd0a4f28419497f9722a3daafe3b4186f6b6457e060405160405180910390a360008060006101000a81548173ffffffffffffffffffffffffffffffffffffffff021916908373ffffffffffffffffffffffffffffffffffffffff160217905550565b60006109c382610a6e565b9050606481816109cf57fe5b06810390506109de8282610b01565b5050565b60008060009054906101000a900473ffffffffffffffffffffffffffffffffffffffff16905090565b60008060009054906101000a900473ffffffffffffffffffffffffffffffffffffffff1673ffffffffffffffffffffffffffffffffffffffff163373ffffffffffffffffffffffffffffffffffffffff1614905090565b60035481565b60025481565b60008082604051602001610a8291906111ce565b6040516020818303038152906040528051906020012060001c90506002548181610aa857fe5b06915050919050565b610ab9610a0b565b610ac257600080fd5b610acb81610cbf565b50565b600080828401905083811015610ae057fe5b8091505092915050565b600082821115610af657fe5b818303905092915050565b6000600160056040518060600160405280868152602001858152602001600454815250908060018154018082558091505090600182039060005260206000209060030201600090919290919091506000820151816000019080519060200190610b6b929190610dd8565b5060208201518160010155604082015181600201555050039050600460008154809291906001019190505550336006600083815260200190815260200160002060006101000a81548173ffffffffffffffffffffffffffffffffffffffff021916908373ffffffffffffffffffffffffffffffffffffffff160217905550610c3c6001600760003373ffffffffffffffffffffffffffffffffffffffff1673ffffffffffffffffffffffffffffffffffffffff16815260200190815260200160002054610ace90919063ffffffff16565b600760003373ffffffffffffffffffffffffffffffffffffffff1673ffffffffffffffffffffffffffffffffffffffff168152602001908152602001600020819055507f88f026aacbbecc90c18411df4b1185fd8d9be2470f1962f192bf84a27d0704b7818484604051610cb293929190611296565b60405180910390a1505050565b600073ffffffffffffffffffffffffffffffffffffffff168173ffffffffffffffffffffffffffffffffffffffff161415610cf957600080fd5b8073ffffffffffffffffffffffffffffffffffffffff166000809054906101000a900473ffffffffffffffffffffffffffffffffffffffff1673ffffffffffffffffffffffffffffffffffffffff167f8be0079c531659141344cd1fd0a4f28419497f9722a3daafe3b4186f6b6457e060405160405180910390a3806000806101000a81548173ffffffffffffffffffffffffffffffffffffffff021916908373ffffffffffffffffffffffffffffffffffffffff16021790555050565b60405180606001604052806060815260200160008152602001600081525090565b828054600181600116156101000203166002900490600052602060002090601f016020900481019282601f10610e1957805160ff1916838001178555610e47565b82800160010185558215610e47579182015b82811115610e46578251825591602001919060010190610e2b565b5b509050610e549190610e58565b5090565b610e7a91905b80821115610e76576000816000905550600101610e5e565b5090565b90565b600081359050610e8c81611444565b92915050565b600082601f830112610ea357600080fd5b8135610eb6610eb182611301565b6112d4565b91508082526020830160208301858383011115610ed257600080fd5b610edd8382846113f1565b50505092915050565b600081359050610ef58161145b565b92915050565b600060208284031215610f0d57600080fd5b6000610f1b84828501610e7d565b91505092915050565b600080600060608486031215610f3957600080fd5b6000610f4786828701610e7d565b9350506020610f5886828701610e7d565b9250506040610f6986828701610ee6565b9150509250925092565b600060208284031215610f8557600080fd5b600082013567ffffffffffffffff811115610f9f57600080fd5b610fab84828501610e92565b91505092915050565b600060208284031215610fc657600080fd5b6000610fd484828501610ee6565b91505092915050565b6000610fe98383611160565b905092915050565b610ffa816113a9565b82525050565b600061100b8261133d565b611015818561136b565b9350836020820285016110278561132d565b8060005b8581101561106357848403895281516110448582610fdd565b945061104f8361135e565b925060208a0199505060018101905061102b565b50829750879550505050505092915050565b61107e816113bb565b82525050565b600061108f82611353565b611099818561138d565b93506110a9818560208601611400565b6110b281611433565b840191505092915050565b60006110c882611353565b6110d2818561139e565b93506110e2818560208601611400565b80840191505092915050565b60006110f982611348565b611103818561137c565b9350611113818560208601611400565b61111c81611433565b840191505092915050565b600061113282611348565b61113c818561138d565b935061114c818560208601611400565b61115581611433565b840191505092915050565b6000606083016000830151848203600086015261117d82826110ee565b915050602083015161119260208601826111b0565b5060408301516111a560408601826111b0565b508091505092915050565b6111b9816113e7565b82525050565b6111c8816113e7565b82525050565b60006111da82846110bd565b915081905092915050565b60006020820190506111fa6000830184610ff1565b92915050565b6000602082019050818103600083015261121a8184611000565b905092915050565b60006020820190506112376000830184611075565b92915050565b600060608201905081810360008301526112578186611127565b905061126660208301856111bf565b61127360408301846111bf565b949350505050565b600060208201905061129060008301846111bf565b92915050565b60006060820190506112ab60008301866111bf565b81810360208301526112bd8185611084565b90506112cc60408301846111bf565b949350505050565b6000604051905081810181811067ffffffffffffffff821117156112f757600080fd5b8060405250919050565b600067ffffffffffffffff82111561131857600080fd5b601f19601f8301169050602081019050919050565b6000819050602082019050919050565b600081519050919050565b600081519050919050565b600081519050919050565b6000602082019050919050565b600082825260208201905092915050565b600082825260208201905092915050565b600082825260208201905092915050565b600081905092915050565b60006113b4826113c7565b9050919050565b60008115159050919050565b600073ffffffffffffffffffffffffffffffffffffffff82169050919050565b6000819050919050565b82818337600083830152505050565b60005b8381101561141e578082015181840152602081019050611403565b8381111561142d576000848401525b50505050565b6000601f19601f8301169050919050565b61144d816113a9565b811461145857600080fd5b50565b611464816113e7565b811461146f57600080fd5b5056fea365627a7a72315820e7e4a84f46ee2cc4711ac2d829c76d627f483e875f6d821c88c810b847a94d1f6c6578706572696d656e74616cf564736f6c63430005100040",
  "source": "pragma solidity >=0.5.0 <0.6.0;\r\npragma experimental ABIEncoderV2;\r\n\r\nimport \"./ownable.sol\";\r\nimport \"./safemath.sol\";\r\n\r\ncontract ZombieFactory is Ownable {\r\n    using SafeMath for uint256;\r\n    using SafeMath32 for uint32;\r\n    using SafeMath16 for uint16;\r\n\r\n    event NewZombie(uint256 zombieId, string name, uint256 dna);\r\n    event Transfer(address indexed _from, address indexed _to, uint256 indexed _tokenId);\r\n    uint256 public dnaDigits = 16;\r\n    uint256 public dnaModulus = 10**dnaDigits;\r\n    uint256 public cooldownTime = 1 days;\r\n    uint256 public currentIndex;\r\n    struct Zombie {\r\n        string name;\r\n        uint256 dna;\r\n        uint256 index;\r\n    }\r\n\r\n    Zombie[] public zombies;\r\n\r\n    mapping(uint256 => address) public zombieToOwner;\r\n    mapping(address => uint256) ownerZombieCount;\r\n    mapping (uint => address) zombieApprovals;\r\n\r\n\r\n    function _createZombie(string memory _name, uint256 _dna) internal {\r\n        uint256 id = zombies.push(Zombie(_name, _dna,currentIndex)) - 1;\r\n        currentIndex++;\r\n        zombieToOwner[id] = msg.sender;\r\n        ownerZombieCount[msg.sender] = ownerZombieCount[msg.sender].add(1);\r\n        emit NewZombie(id, _name, _dna);\r\n    }\r\n\r\n    function _generateRandomDna(string memory _str)\r\n        public\r\n        view\r\n        returns (uint256)\r\n    {\r\n        uint256 rand = uint256(keccak256(abi.encodePacked(_str)));\r\n        return rand % dnaModulus;\r\n    }\r\n\r\n    function createRandomZombie(string memory _name) public {\r\n        uint256 randDna = _generateRandomDna(_name);\r\n        randDna = randDna - (randDna % 100);\r\n        _createZombie(_name, randDna);\r\n    }\r\n\r\n    function getZombiesByOwner(address _owner)\r\n        public\r\n        view\r\n        returns (Zombie[] memory)\r\n    {\r\n        Zombie[] memory result = new Zombie[](ownerZombieCount[_owner]);\r\n        uint256 counter = 0;\r\n        for (uint256 i = 0; i < zombies.length; i++) {\r\n            if (zombieToOwner[i] == _owner) {\r\n                result[counter]  = zombies[i];\r\n                counter++;\r\n            }\r\n        }\r\n        return result;\r\n    }\r\n    function _transfer(address _from, address _to, uint256 _tokenId) public {\r\n    ownerZombieCount[_to] = ownerZombieCount[_to].add(1);\r\n    ownerZombieCount[msg.sender] = ownerZombieCount[msg.sender].sub(1);\r\n    zombieToOwner[_tokenId] = _to;\r\n    emit Transfer(_from, _to, _tokenId);\r\n  }\r\n\r\n  function transferFrom(address _from, address _to, uint256 _tokenId) public returns(bool)  {\r\n      require (zombieToOwner[_tokenId] == msg.sender || zombieApprovals[_tokenId] == msg.sender);\r\n      _transfer(_from, _to, _tokenId);\r\n      return true;\r\n    }\r\n\r\n}\r\n",
  "sourcePath": "C:\\Users\\HP\\Desktop\\Solidity\\Connect\\contracts\\ZombieFactory.sol",
  "compiler": {
    "name": "solc",
    "version": "0.5.16+commit.9c3226ce.Emscripten.clang"
  },
  "schemaVersion": "3.4.4",
  "updatedAt": "2022-01-01T07:13:55.068Z",
  "networkType": "ethereum",
  "devdoc": {
    "methods": {
      "isOwner()": {
        "return": "true if `msg.sender` is the owner of the contract."
      },
      "owner()": {
        "return": "the address of the owner."
      },
      "renounceOwnership()": {
        "details": "Allows the current owner to relinquish control of the contract."
      },
      "transferOwnership(address)": {
        "details": "Allows the current owner to transfer control of the contract to a newOwner.",
        "params": {
          "newOwner": "The address to transfer ownership to."
        }
      }
    }
  },
  "userdoc": {
    "methods": {
      "renounceOwnership()": {
        "notice": "Renouncing to ownership will leave the contract without an owner. It will not be possible to call the functions with the `onlyOwner` modifier anymore."
      }
    }
  }
}